{
  "contractName": "Payment",
  "abi": [
    {
      "inputs": [],
      "payable": false,
      "stateMutability": "nonpayable",
      "type": "constructor"
    },
    {
      "anonymous": false,
      "inputs": [
        {
          "indexed": false,
          "name": "_destinoTransferencia",
          "type": "address"
        },
        {
          "indexed": false,
          "name": "_origenTransferencia",
          "type": "address"
        },
        {
          "indexed": false,
          "name": "montoTransferencia",
          "type": "uint256"
        }
      ],
      "name": "TransferirMonto",
      "type": "event"
    },
    {
      "constant": false,
      "inputs": [
        {
          "name": "_destinoTransferencia",
          "type": "address"
        }
      ],
      "name": "nuevaTransaccion",
      "outputs": [
        {
          "name": "",
          "type": "bool"
        }
      ],
      "payable": true,
      "stateMutability": "payable",
      "type": "function"
    },
    {
      "constant": false,
      "inputs": [],
      "name": "verBalanceCuenta",
      "outputs": [
        {
          "name": "",
          "type": "uint256"
        }
      ],
      "payable": true,
      "stateMutability": "payable",
      "type": "function"
    }
  ],
  "bytecode": "0x608060405234801561001057600080fd5b50336000806101000a81548173ffffffffffffffffffffffffffffffffffffffff021916908373ffffffffffffffffffffffffffffffffffffffff1602179055506102ce806100606000396000f3fe60806040526004361061004c576000357c0100000000000000000000000000000000000000000000000000000000900463ffffffff16806372e713ac14610051578063e005f9201461006f575b600080fd5b6100596100cb565b6040518082815260200191505060405180910390f35b6100b16004803603602081101561008557600080fd5b81019080803573ffffffffffffffffffffffffffffffffffffffff16906020019092919050505061010b565b604051808215151515815260200191505060405180910390f35b60008060009054906101000a900473ffffffffffffffffffffffffffffffffffffffff1673ffffffffffffffffffffffffffffffffffffffff1631905090565b600081600160006101000a81548173ffffffffffffffffffffffffffffffffffffffff021916908373ffffffffffffffffffffffffffffffffffffffff160217905550600160009054906101000a900473ffffffffffffffffffffffffffffffffffffffff1673ffffffffffffffffffffffffffffffffffffffff166108fc349081150290604051600060405180830381858888f193505050501580156101b6573d6000803e3d6000fd5b507ffc1ff50638c53d8cb428005e102107cffd2da1840abf5289da2981b8e99c6420600160009054906101000a900473ffffffffffffffffffffffffffffffffffffffff166000809054906101000a900473ffffffffffffffffffffffffffffffffffffffff1634604051808473ffffffffffffffffffffffffffffffffffffffff1673ffffffffffffffffffffffffffffffffffffffff1681526020018373ffffffffffffffffffffffffffffffffffffffff1673ffffffffffffffffffffffffffffffffffffffff168152602001828152602001935050505060405180910390a16001905091905056fea165627a7a723058209eed8009a5aea56c8cfcba5f7425c134282ca4b90d597062c7b0ff2ec53308920029",
  "source": "pragma solidity 0.5.0;\n\ncontract Payment {\n    address origenTransferencia;\n    address payable destinoTransferencia;\n    uint montoTransferencia;\n    \n    constructor() public {\n        origenTransferencia = msg.sender;\n    }\n\n    event TransferirMonto(address payable _destinoTransferencia, address _origenTransferencia, uint montoTransferencia);\n    \n    function nuevaTransaccion(address payable _destinoTransferencia) public payable returns (bool){\n        destinoTransferencia = _destinoTransferencia;\n        destinoTransferencia.transfer(msg.value);\n        emit TransferirMonto(destinoTransferencia, origenTransferencia, msg.value);\n        return true;\n    }\n    function verBalanceCuenta() public payable returns (uint) {\n        return origenTransferencia.balance;\n    }\n}",
  "sourcePath": "/Users/antoniocardenas/Documents/GitHub/Angular-Truffle-Dapp/Blockchain/contracts/Payment.sol",
  "compiler": {
    "name": "solc",
    "version": "0.5.0+commit.1d4f565a.Emscripten.clang"
  },
  "schemaVersion": "3.4.3",
  "updatedAt": "2021-09-22T03:58:24.057Z",
  "networkType": "ethereum",
  "devdoc": {
    "methods": {}
  },
  "userdoc": {
    "methods": {}
  }
}